:1000000065EF00F00000000000EF00F000000000CD
:0A0010000000000000000000F3D71C
:10001C00AFC004F0B0C005F004C002F005C003F09E
:10002C00044A052AB1C000F0B2C001F00001B14B86
:10003C00B22B00C0E9FF01C0EAFF02C0E1FF03C020
:10004C00E2FFEECFE6FF02C0E9FF03C0EAFFEE528B
:0E005C0001E0E2D7AFC000F0B0C001F012002A
:10006A000B6A0A6A096A00500402F4CF09F0F3CF56
:10007A0008F001500502F4CF0BF0F3CF0AF000505C
:10008A000502F3500926F4500A22E86A0B220150AD
:10009A000402F3500926F4500A22E86A0B2208C027
:1000AA0000F009C001F00AC002F00BC003F0120010
:1000BA000900F5CFE6FF0006FBE10106F9E11200AF
:1000CA0005EC01F0660E00019D6F7B0E9E6F000E1F
:1000DA009F6F700EA06F780E896F000E8A6F41C0F5
:1000EA009BF042C09CF0A50EAF6F000EB06F670E7A
:1000FA00B16F000EB26F8DDF9EC000F09FC001F09D
:10010A00060E046E000E056EABDF00C0A3F001C040
:10011A00A4F025C0A3F026C0A4F0A50EAF6F000E70
:10012A00B06F150EB16F000EB26F73DFA50EAF6F11
:10013A00000EB06F270EB16F000EB26F6ADF010EAC
:10014A00926E926A936A946A956A966A896A8A6AC8
:10015A008B6A8C6A8D6A290E0B6E960E0C6E7F0E58
:10016A000D6E0D2EFED70C2EFCD70B2EFAD7FF0ED6
:10017A00896EFF0E8A6EFF0E8B6EFF0E8C6EFF0E5F
:10018A008D6E290E0B6E960E0C6E7F0E0D6E0D2E59
:0E019A00FED70C2EFCD70B2EFAD7D8D7FFD7E6
:10020A0010EE15F0620E006E010E016EA80EF66E6B
:0E021A00010EF76E000EF86E5DEC00F01200A3
:1001A8006B656C6C79000000000000000000000026
:0A01B8001700494E56009A99218362
:1001C2006461766964000000000000000000000025
:1001D200000017006472697665720000000000007A
:1001E20000000000706574657200000000000000ED
:1001F2000000000000002300646F63746F7200004F
:080202000000000000000000F4
:020000040030CA
:0D000100231F3CFFBF81FF0FC00FE00F4029
:00000001FF
