:100000003CEF00F00000000000EF00F000000000F6
:0A0010000000000000000000F3D71C
:10001C0041C004F042C005F004C002F005C003F07A
:10002C00044A052A43C000F044C001F0434A442A64
:10003C0000C0E9FF01C0EAFF02C0E1FF03C0E2FF1C
:10004C00EECFE6FF02C0E9FF03C0EAFFEE5201E08B
:0C005C00E3D741C000F042C001F01200E8
:100068000900F5CFE6FF0006FBE10106F9E1120001
:100078009BEC00F0660E326E7B0E336E000E346E13
:10008800700E2F6EE20E356E020E366E25C035F0FC
:1000980026C036F0370E416E000E426E150E436EC6
:1000A800000E446EB7DF370E416E000E426E270E0B
:1000B800436E000E446EAEDF926A936A946A956A44
:1000C800966A896A8A6A8B6A8C6A8D6A290E0B6EAF
:1000D800960E0C6E7F0E0D6E0D2EFED70C2EFCD7D5
:1000E8000B2EFAD7FF0E896EFF0E8A6EFF0E8B6EEF
:1000F800FF0E8C6EFF0E8D6E290E0B6E960E0C6E1B
:100108007F0E0D6E0D2EFED70C2EFCD70B2EFAD7B8
:04011800D8D7FFD75E
:1001360010EE15F01A0E006E010E016E1C0EF66E14
:0E014600010EF76E000EF86E34EC00F01200A1
:10011C006B656C6C790000000000000000000000B2
:0A012C001700494E56009A992183EE
:00000001FF
