:1000000033EF02F00000000000EF00F000000000FD
:0A0010000000000000000000F3D71C
:10001C00086A096A100E0C6E013408360936045051
:10002C00085E0550D8A0053C095ED8B007D0045036
:10003C0008260550D8B0053C0926D8900036013664
:06004C000C2EEAD71200A1
:100052000B800BAE35EF00F0026A0AAEFF0E026EA5
:0C006200016E006E0A360232FF0E120022
:10006E007FA202D00000FCD77F9CFBC063FFFAC0CA
:10007E0062FFFCC061FF7F9E7F84F2CF00F0F29E94
:10008E00550E7E6EAA0E7E6E7F8200BE02D0F29E4E
:08009E0001D0F28E7F941200E4
:1000A6000B6A0C6A0A6A0350D8B49DEF00F0028E00
:1000B6008E0E035E03BE65EF00F0D8B465EF00F068
:1000C600A1EF00F0036C080E035CD8A07CEF00F0F3
:1000D600036E013602C001F0026A080E035CD8A066
:1000E6007CEF00F00136016A0350D8A4D89086EF61
:1000F60000F00350D8B486EF00F0D89002320132F7
:10010600032E80EF00F00BBC01A093EF00F0D8A007
:1001160093EF00F0012AD8B4022A02BEB0EF00F035
:100126000AAEB5EF00F0021E011E012AD8B4022A5B
:10013600B5EF00F0026A016AB5EF00F00B800BAE76
:10014600B9EF00F0026A0AAEB9EF00F0FF0E026ED8
:10015600016E0A360232B9EF00F0010E0C6E76DF40
:10016600BBEF00F0000E0C6EBBEF00F0FF0E0C6E46
:0A0176000150006E0250016E1200ED
:100180000001FE6B050EFE5D0AE2FE51FC25E16EEC
:10019000000EFD21E26E200EE66EFE2BF3D7FE511F
:1001A000FC25E16E000EFD21E26EE66AFE07FE51BF
:1001B000FC25FF6F000EFD210101006F0A0E046E89
:1001C000000E056EFAC000F0FBC001F027DF08C08A
:1001D00000F009C001F0300E0026FFC0E1FF00C1B1
:1001E000E2FF00C0E6FF0A0E046E000E056EFAC0C4
:1001F00000F0FBC001F012DF00C0FAF001C0FBF01C
:10020000000E011802E1000E001801E103D0000108
:06021000FE07CDD712002D
:100216007F9CFBC063FFFAC062FF7F9E7F8061CF39
:0802260001F001C000F012001C
:10022E0003500718D8A42BEF01F002500618D8A4DB
:10023E002BEF01F001500518D8A42BEF01F0005060
:0E024E000418D8B4D8841200D89412001200FC
:10025C00F1C004F0F2C005F004C002F005C003F0D8
:10026C00044A052AF3C000F0F4C001F00001F34B7E
:10027C00F42B00C0E9FF01C0EAFF02C0E1FF03C09C
:10028C00E2FFEECFE6FF02C0E9FF03C0EAFFEE5249
:0E029C0001E0E2D7F1C000F0F2C001F0120064
:1002AA000900F5CFE6FF0006FBE10106F9E11200BD
:1002BA00000E046E000E056E300E066E810E076E7D
:1002CA0019C000F01AC001F01BC002F01CC003F0F4
:1002DA00A9DF010ED8A4000E006E005204E0196ACC
:1002EA001A6A1B6A1C6A19C000F01AC001F01BC006
:1002FA0002F01CC003F0D2DE00C0F1F001C0F2F03F
:10030A00010E0001FA6F000EFB6F80DF00C0F6F0ED
:10031A00000EF76FF6C0F7F0F66B820E0C6EDD0E6C
:10032A000D6E0D2EFED70C2EFCD700000000FA6BC6
:10033A00FB6B6CDF00C0F8F0000EF96F820E0C6EDA
:10034A00DD0E0D6E0D2EFED70C2EFCD70000000020
:10035A00000EF21902E1000EF11904E1010EF16F2B
:10036A00000EF26FF851F625F46FF951F721F56F87
:10037A00F151F427F251F523400EF46F9C0EF56FFC
:10038A00400EFA6F9C0EFB6FB90EFC6F000EFD6FEC
:10039A00F2DEFF0E0001F415F36F000EF415036E82
:1003AA00F551FF0B046E04C000F0016A010EFA6FEA
:1003BA00000EFB6F00C0FCF055DE820E0C6EDD0EE7
:1003CA000D6E0D2EFED70C2EFCD70000000000018A
:1003DA00FA6BFB6BF3C0FCF045DE820E0C6EDD0E91
:1003EA000D6E0D2EFED70C2EFCD700000000160E47
:1003FA000001AF6F000EB06F000E196E000E1A6E7C
:0C040A000C0E1B6E840E1C6E53D71200EB
:100416000B6A0A6A096A00500402F4CF09F0F3CFA6
:1004260008F001500502F4CF0BF0F3CF0AF00050AC
:100436000502F3500926F4500A22E86A0B220150FD
:100446000402F3500926F4500A22E86A0B2208C077
:1004560000F009C001F00AC002F00BC003F0120060
:10046600EFEC02F0150E0001AF6F000EB06FB10E8B
:10047600F16F000EF26F150EF36F000EF46FEBDEE8
:10048600660E7F6F7B0E806F000E816F700E9C6F05
:10049600780ED16F000ED26F49C0EFF04AC0F0F06F
:1004A600E50EF16F000EF26F6F0EF36F000EF46F34
:1004B600D2DE80C000F081C001F0060E046E000E90
:1004C600056EA6DF00C0E3F001C0E4F0010E0024D3
:1004D600E36F000E0120E46F2DC0E3F02EC0E4F0C0
:1004E600E50EF16F000EF26F1D0EF36F000EF46F46
:1004F600B2DEE50EF16F000EF26F2F0EF36F000EF7
:10050600F46FA9DE010E926ED5DE926A936A946A42
:10051600956A966A896A8A6A8B6A8C6A8D6A3D0EC2
:100526000B6EE10E0C6E3F0E0D6E0D2EFED70C2ED1
:10053600FCD70B2EFAD700000000FF0E896EFF0EC7
:100546008A6EFF0E8B6EFF0E8C6EFF0E8D6E3D0E4D
:100556000B6EE10E0C6E3F0E0D6E0D2EFED70C2EA1
:0E056600FCD70B2EFAD700000000D4D7FFD729
:1005DE0010EE15F06A0E006E010E016E740EF66EC0
:0E05EE00050EF76E000EF86E55EC01F01200CF
:040574004E4F520094
:0405780000003081CE
:10057C006B656C6C7900000000000000000000004E
:0A058C001700494E56009A9921838A
:10059600646176696400000000000000000000004D
:1005A60000001700647269766572000000000000A2
:1005B6000000000070657465720000000000000015
:1005C6000000000000002300646F63746F72000077
:0805D60000000000000000001D
:020000040030CA
:0E0000001D037F7CF98B11FFFFC0FFE0FF4066
:00000001FF
